:100000000C9462000C948A000C948A000C948A0070
:100010000C948A000C948A000C948A000C948A0038
:100020000C948A000C948A000C948A000C948A0028
:100030000C948A000C948A000C948A000C948A0018
:100040000C945A030C948A000C945F010C948A005F
:100050000C948A000C948A000C948A000C948A00F8
:100060000C948A000C948A000000000024002700F1
:100070002A0000000000250028002B0000000000DE
:1000800023002600290004040404040404040202DA
:100090000202020203030303030301020408102007
:1000A0004080010204081020010204081020000012
:1000B0000007000201000003040600000000000029
:1000C0000000180211241FBECFEFD8E0DEBFCDBF65
:1000D00011E0A0E0B1E0E8E9FAE002C005900D927D
:1000E000AC30B107D9F711E0ACE0B1E001C01D922E
:1000F000AE3AB107E1F710E0C4ECD0E004C02297BB
:10010000FE010E944605C23CD107C9F70E94580172
:100110000C944A050C9400000E94910420E0892B65
:1001200009F421E0822F08958F929F92AF92BF929F
:10013000CF92DF92EF92FF920F931F93E62EA42EA1
:1001400093E9892E91E0992E482F50E060E070E00D
:10015000C40120E030E00E944503FF2400E010E0ED
:10016000C401B801A70120E030E00E944503BB2490
:10017000CC24DD24C401B601A50120E030E00E94BA
:1001800045031F910F91FF90EF90DF90CF90BF90AC
:10019000AF909F908F90089580E00E940604909306
:1001A0000E0180930D0168E070E00E94E00460930E
:1001B0000C0182E00E948C00882351F483E00E94AD
:1001C0008C00882329F484E00E948C008823C1F0ED
:1001D00085E96CE345E40E94940086E060E00E94BB
:1001E000440482E00E948C008823D9F783E00E94B7
:1001F0008C008823B1F784E00E948C00882389F763
:100200000895CF93DF9387E061E00E94240486E0A5
:1002100061E00E94240482E060E00E94240483E004
:1002200060E00E94240484E060E00E94240482E0F4
:1002300061E00E94440483E061E00E94440484E0A1
:1002400061E00E944404C0E0D0E087E061E00E94E9
:10025000440486E060E00E9444046EE170E080E0C7
:1002600090E00E94A20387E060E00E94440486E0E0
:1002700061E00E9444046EE170E080E090E00E9442
:10028000A2032196CA30D10501F787E061E00E9400
:10029000440486E061E00E94440483E991E042E185
:1002A0005AE760E070E00E949C01DF91CF910895D1
:1002B0000E94CC030E9401010E94CC00FDCF1F923E
:1002C0000F920FB60F9211242F933F934F935F938A
:1002D0006F937F938F939F93AF93BF93EF93FF930E
:1002E0004091C600E0918F01F0919001CF010196FD
:1002F00060E870E00E94E0049C018091910190917F
:1003000092012817390739F0E15FFE4F408330939F
:10031000900120938F01FF91EF91BF91AF919F9139
:100320008F917F916F915F914F913F912F910F909E
:100330000FBE0F901F901895AF92BF92CF92DF9291
:10034000EF92FF920F931F93CF93DF936C017A018B
:100350008B01DC011496AD90BC901597CB01BA01CE
:1003600022E030E040E050E00E941505205C3D4B6B
:10037000404F5F4FCA01B901A80197010E941505BE
:10038000C901DA010197A109B109292F3A2F4B2F91
:10039000552747FD5A950196A11DB11DE5012883FA
:1003A000E601EE81FF8181508083EA85FB85208113
:1003B00041E050E0CA010E8402C0880F991F0A94E0
:1003C000E2F7282B2083EA85FB852081CA010F8470
:1003D00002C0880F991F0A94E2F7282B2083EA8530
:1003E000FB858081088802C0440F551F0A94E2F7FC
:1003F000842B8083DF91CF911F910F91FF90EF901D
:10040000DF90CF90BF90AF900895FC01A085B1859B
:1004100021898C9190E0022E02C0959587950A94CF
:10042000E2F780FFF6CF0484F585E02D6083089520
:1004300085E091E090939401809393018FE091E0A7
:10044000909396018093950185EC90E090939801AC
:100450008093970184EC90E090939A0180939901A6
:1004600080EC90E090939C0180939B0181EC90E064
:1004700090939E0180939D0186EC90E09093A00163
:1004800080939F0184E08093A10183E08093A20187
:1004900087E08093A30185E08093A40108950F93E2
:1004A0001F93CF93DF938C01EB0109C02196D801F4
:1004B000ED91FC910190F081E02DC80109956881D2
:1004C0006623A1F7DF91CF911F910F910895EF92CD
:1004D000FF920F931F93CF93DF938C017B01EA016F
:1004E0000CC0D7016D917D01D801ED91FC91019077
:1004F000F081E02DC80109952197209791F7DF91B0
:10050000CF911F910F91FF90EF9008952F923F92FE
:100510004F925F926F927F928F929F92AF92BF9213
:10052000CF92DF92EF92FF920F931F93DF93CF93BF
:10053000CDB7DEB7A0970FB6F894DEBF0FBECDBF24
:100540001C016A017B01411551056105710549F4E2
:10055000DC01ED91FC910190F081E02D60E30995C3
:1005600054C0882499245401422E552466247724AB
:1005700001E010E00C0F1D1F080D191DC701B60189
:10058000A30192010E94F304F80160830894811C86
:10059000911CA11CB11CC701B601A30192010E94CC
:1005A000F304C901DA016C017D01C114D104E10435
:1005B000F104F1F681E0E82EF12CEC0EFD1EE80CC2
:1005C000F91C3E010894611C711CD501C4010197FE
:1005D000A109B1096C01C818D90814C0F601EE0DC3
:1005E000FF1D60816A3010F4605D01C0695CD1015B
:1005F000ED91FC910190F081E02DC10109950894E5
:10060000E108F1086E147F0449F7A0960FB6F8943C
:10061000DEBF0FBECDBFCF91DF911F910F91FF9035
:10062000EF90DF90CF90BF90AF909F908F907F9092
:100630006F905F904F903F902F900895EF92FF92B0
:100640000F931F93CF93DF93EC017A018B0177FF18
:100650000FC0E881F9810190F081E02D6DE20995EC
:1006600010950095F094E094E11CF11C011D111D02
:10067000CE01B801A7012AE00E948602DF91CF9146
:100680001F910F91FF90EF900895DC012115310526
:1006900041F4ED91FC910190F081E02D642F0995DA
:1006A00008952A30310519F40E941E0308950E940E
:1006B000860208951F920F920FB60F9211242F9366
:1006C0003F938F939F93AF93BF938091A901909194
:1006D000AA01A091AB01B091AC013091AD0101969E
:1006E000A11DB11D232F2D5F2D3720F02D57019611
:1006F000A11DB11D2093AD018093A9019093AA0182
:10070000A093AB01B093AC018091A5019091A6019B
:10071000A091A701B091A8010196A11DB11D8093E0
:10072000A5019093A601A093A701B093A801BF9142
:10073000AF919F918F913F912F910F900FBE0F908E
:100740001F901895EF92FF920F931F937B018C01DE
:100750008FB7F8944091A9015091AA016091AB0123
:100760007091AC018FBF2FB7F8948091A90190913F
:10077000AA01A091AB01B091AC012FBF841B950BD6
:10078000A60BB70BE816F9060A071B0760F71F91BF
:100790000F91FF90EF900895789484B5826084BDA6
:1007A00084B5816084BD85B5826085BD85B5816075
:1007B00085BDEEE6F0E0808181608083E1E8F0E0D5
:1007C000808182608083808181608083E0E8F0E0C6
:1007D000808181608083E1EBF0E0808184608083B0
:1007E000E0EBF0E0808181608083EAE7F0E08081E7
:1007F0008460808380818260808380818160808347
:100800008081806880831092C100089587709091E4
:1008100000019295990F990F907C982B90937C00F2
:1008200080917A00806480937A0080917A0086FDBE
:10083000FCCF2091780040917900942F80E030E047
:10084000282B392BC9010895282F30E0C90186567D
:100850009F4FFC0194912A573F4FF90184918823BF
:1008600091F0E82FF0E0EE0FFF1FE859FF4FA59140
:10087000B491662329F48C91909589238C930895E3
:100880008C91892B8C930895482F50E0CA01825592
:100890009F4FFC012491CA0186569F4FFC01949101
:1008A0004A575F4FFA0134913323D1F1222331F1BA
:1008B000233021F4809180008F7705C0243031F4FB
:1008C000809180008F7D8093800018C0213019F4C2
:1008D00084B58F7704C0223021F484B58F7D84BD28
:1008E0000DC0263021F48091B0008F7705C02730ED
:1008F00029F48091B0008F7D8093B000E32FF0E069
:10090000EE0FFF1FEE58FF4FA591B491662329F417
:100910008C91909589238C9308958C91892B8C933D
:100920000895682F70E0CB0182559F4FFC01249100
:10093000CB0186569F4FFC0144916A577F4FFB01C4
:100940009491992319F420E030E038C0222331F14A
:10095000233021F4809180008F7705C0243031F45A
:10096000809180008F7D8093800018C0213019F421
:1009700084B58F7704C0223021F484B58F7D84BD87
:100980000DC0263021F48091B0008F7705C027304C
:1009900029F48091B0008F7D8093B000892F90E082
:1009A000880F991F84589F4FFC01A591B4918C9199
:1009B00020E030E0842311F021E030E0C901089507
:1009C00097FB092E07260AD077FD04D049D006D020
:1009D00000201AF4709561957F4F0895F6F7909571
:1009E00081959F4F0895A1E21A2EAA1BBB1BFD0102
:1009F0000DC0AA1FBB1FEE1FFF1FA217B307E407FE
:100A0000F50720F0A21BB30BE40BF50B661F771F55
:100A1000881F991F1A9469F7609570958095909535
:100A20009B01AC01BD01CF01089597FB092E05265E
:100A30000ED057FD04D0D7DF0AD0001C38F45095F3
:100A40004095309521953F4F4F4F5F4F0895F6F7F2
:100A500090958095709561957F4F8F4F9F4F08952A
:100A6000AA1BBB1B51E107C0AA1FBB1FA617B707D4
:100A700010F0A61BB70B881F991F5A95A9F78095F0
:100A80009095BC01CD010895EE0FFF1F0590F491E4
:080A9000E02D0994F894FFCF5A
:0C0A9800010000000005024F0267020090
:00000001FF
